:100000000C942A000C94C7040C9447000C944700ED
:100010000C9447000C9447000C9447000C94470044
:100020000C9447000C9447000C9447000C94A204D5
:100030000C9447000C9447000C9447000C94470024
:100040000C9447000C9447000C9447000C94470014
:100050000C94470011241FBECFE5D8E0DEBFCDBF12
:1000600011E0A0E6B0E0EEE7FBE102C005900D92E2
:10007000A435B107D9F721E0A4E5B1E001C01D9294
:10008000AC36B207E1F70E9440030C94BD0D0C940E
:100090000000CF93C82F80FF06C041E064E080E0FD
:1000A0000E94FB0505C040E064E080E00E94FB0583
:1000B000C1FF06C041E065E080E00E94FB0505C08D
:1000C00040E065E080E00E94FB05C2FF06C041E021
:1000D00066E080E00E94FB0505C040E066E080E04D
:1000E0000E94FB05C3FF06C041E067E080E00E947C
:1000F000FB0505C040E067E080E00E94FB05CF9172
:100100000895CF93C82F40E061E081E00E94FB0595
:1001100040E062E081E00E94FB058C2F82958F70A9
:100120000E94490041E063E081E00E94FB058FE905
:100130009FE00197F1F700C0000040E063E081E03C
:100140000E94FB058C2F0E94490041E063E081E0A2
:100150000E94FB058FE99FE00197F1F700C00000C6
:1001600040E063E081E00E94FB05CF91089541E00B
:1001700061E081E00E947B0541E062E081E00E9455
:100180007B0541E063E081E00E947B0541E064E0A3
:1001900080E00E947B0541E065E080E00E947B05F5
:1001A00041E066E080E00E947B0541E067E080E09E
:1001B0000E947B052FE785EB91E021508040904025
:1001C000E1F700C0000040E061E081E00E94FB0533
:1001D00040E062E081E00E94FB0582E00E9449006D
:1001E00041E063E081E00E94FB058FE99FE0019719
:1001F000F1F700C0000040E063E081E00E94FB05F1
:1002000088E20E94810090EF9A95F1F78CE00E94BD
:10021000810020EF2A95F1F781E00E9481008FE3B1
:100220009FE10197F1F700C0000086E00E94810085
:100230000895CF93C82F41E061E081E00E94FB0563
:1002400040E062E081E00E94FB058C2F82958F7078
:100250000E94490041E063E081E00E94FB058FE9D4
:100260009FE00197F1F700C0000040E063E081E00B
:100270000E94FB058C2F0E94490041E063E081E071
:100280000E94FB058FE99FE00197F1F700C0000095
:1002900040E063E081E00E94FB05CF9108950F9359
:1002A0001F93CF93009729F40CC00E941901CF5FD0
:1002B00002C08C01C0E0F801EC0FF11D80818111BA
:1002C000F4CFCF911F910F9108950F931F93CF9368
:1002D000DF93CDB7DEB7E2970FB6F894DEBF0FBE5F
:1002E000CDBF9F938F937F936F9380E690E09F9312
:1002F0008F938E010F5F1F4F1F930F930E94D30A9E
:10030000C8010E944F010FB6F894DEBF0FBECDBFEB
:10031000E2960FB6F894DEBF0FBECDBFDF91CF914E
:100320001F910F9108959FEF980F9230B8F46832A3
:10033000A8F4813029F0823021F420E4260F01C096
:10034000262F822F80680E9481002FE782E392E0AF
:10035000215080409040E1F700C0000008954F9286
:100360005F926F927F92AF92BF92CF92DF92EF92A5
:10037000FF920F931F93CF93DF93CDB7DEB72897EC
:100380000FB6F894DEBF0FBECDBF69837A838B832F
:100390009C8329013A01ED82FE820F83188760E079
:1003A00081E00E94930187E890E00E944F016981FB
:1003B0007A818B819C810E94650184E690E00E9495
:1003C0004F0188E690E00E944F01C301B2010E94F4
:1003D000650184E790E00E944F0188E790E00E9469
:1003E0004F016D817E818F8198850E94650185E234
:1003F0000E94190160E082E00E9493018FE790E083
:100400000E944F01C601B5010E94650184E790E09A
:100410000E944F0184E890E00E944F01698D7A8D1F
:100420008B8D9C8D0E94650184E790E00E944F01B6
:1004300028960FB6F894DEBF0FBECDBFDF91CF91E7
:100440001F910F91FF90EF90DF90CF90BF90AF90F2
:100450007F906F905F904F90089522333105410552
:10046000510508F082C06F30710581059105B0F427
:100470008BE890E00E944F0162E182E00E949301CC
:100480002FEF87E893E1215080409040E1F700C0D2
:1004900000008AE890E00E944F01089569317105DB
:1004A00081059105B0F480EA90E00E944F012FEFA2
:1004B00087E893E1215080409040E1F700C00000C0
:1004C00062E182E00E9493018CEA90E00E944F0179
:1004D00008956233710581059105B0F48CEB90E0CD
:1004E0000E944F012FEF89E698E121508040904013
:1004F000E1F700C0000062E182E00E94930184EC19
:1005000090E00E944F0108956B34710581059105BB
:10051000B0F481ED90E00E944F012FEF87E893E166
:10052000215080409040E1F700C0000062E182E08D
:100530000E9493018BED90E00E944F01089580EF9F
:1005400090E00E944F012FEF87E893E12150804017
:100550009040E1F700C0000062E182E00E94930158
:100560008BEE90E00E944F0108956F307105810578
:10057000910568F48EEF90E00E944F0163E182E004
:100580000E9493018DEF90E00E944F010895693120
:1005900071058105910568F48EEA90E00E944F0193
:1005A00062E182E00E9493018CEA90E00E944F0198
:1005B0000895623371058105910568F48CEB90E034
:1005C0000E944F0162E182E00E94930184EC90E07E
:1005D0000E944F0108956B3471058105910568F4FF
:1005E00081ED90E00E944F0162E182E00E94930160
:1005F0008BED90E00E944F01089580EF90E00E9403
:100600004F0162E182E00E9493018CE091E00E9440
:100610004F01089540E00E947B050895EF92FF92FC
:100620001F93CF93DF931F92CDB7DEB7211531050E
:1006300001F17901142FAE014F5F5F4F0E947B06DD
:10064000113019F0123059F014C08981813019F439
:10065000F70180830EC082E0F70180830AC08981A0
:10066000811104C081E0F701808303C082E0F701BB
:1006700080830F90DF91CF911F91FF90EF900895AD
:10068000CF93DF93CDB7DEB768970FB6F894DEBF90
:100690000FBECDBF0E941A070E94B7000E945108EA
:1006A0000E941E0741E065E083E00E947B0540E078
:1006B00062E083E00E947B0560E082E00E940A0322
:1006C00061E082E00E940A0362E082E00E940A0385
:1006D00063E082E00E940A038FE191E00E944F01F3
:1006E0002FEF83ED90E3215080409040E1F700C070
:1006F000000060E082E00E9493018BE391E00E94A1
:100700004F012FEF8DE399E4215080409040E1F7B5
:1007100000C0000060E080E00E94B6060E945B0816
:1007200081E0782E9E012B5E3F4F41E060E082E049
:100730000E940E039E012A5E3F4F41E061E082E08D
:100740000E940E039E01295E3F4F41E062E082E07D
:100750000E940E039E01285E3F4F41E063E082E06D
:100760000E940E038D89813041F440E050E066E93B
:1007700072E489E190E00E9431078E89813041F472
:1007800040E050E060E771E482E390E00E943107CE
:100790008F89813041F440E050E06AEA72E482E3FC
:1007A00090E00E943107888D813041F440E050E0B4
:1007B0006EEB72E485EA90E00E9431078D8981300A
:1007C00089F08E89813071F08F89813059F0888D60
:1007D000813041F040E050E060E271E489E190E076
:1007E0000E9431078091580190915901A0915A01BE
:1007F000B0915B010397A105B10509F093CF60E0CB
:1008000080E00E94B6061092580110925901109291
:100810005A0110925B0110926401109265011092CE
:100820006601109267018090680190906901A09024
:100830006A01B0906B01C0905401D0905501E090D6
:100840005601F090570100916001109161012091D3
:1008500062013091630140915C0150915D016091B2
:100860005E0170915F01CE0101960E947D070091AB
:1008700068011091690120916A0130916B014091EA
:100880005401509155016091560170915701CE016C
:1008900005960E94C1076D817E818F819885AE018A
:1008A000475F5F4F0E94E90729813A814B815C8154
:1008B00069857A858B859C858E01035F1F4F0E9419
:1008C00003082D853E854F85588969857A858B85F6
:1008D0009C850C5F1F4F0E943E0880E0711021CF65
:1008E000AD84BE84CF84D888E980FA800B811C81D6
:1008F00029853A854B855C856D817E818F819885C0
:10090000EC89EF93EB89EF93EA89EF93E989EF9311
:100910000E94AF01A988BA88CB88DC88ED84FE8468
:100920000F8518892D813E814F81588569817A8193
:100930008B819C810E942D020F900F900F900F9041
:10094000872DEFCE1F920F920FB60F9211248F9327
:100950009F93AF93BF938091640190916501A091A3
:100960006601B09167010196A11DB11D80936401DC
:1009700090936501A0936601B0936701BF91AF9119
:100980009F918F910F900FBE0F901F9018951F92FF
:100990000F920FB60F9211242F933F934F935F93B3
:1009A0006F937F938F939F93AF93BF93EF93FF9337
:1009B0008091580190915901A0915A01B0915B0129
:1009C0000097A105B10509F512BE109264011092BD
:1009D0006501109266011092670161E080E00E945B
:1009E000B6068091580190915901A0915A01B09199
:1009F0005B010196A11DB11D80935801909359018F
:100A0000A0935A01B0935B0165C081309105A105A7
:100A1000B105A1F582B790E0A0E0B0E080935C0161
:100A200090935D01A0935E01B0935F01809164019A
:100A300090916501A0916601B0916701809360017A
:100A400090936101A0936201B093630160E080E044
:100A50000E94B6068091580190915901A0915A01C7
:100A6000B0915B010196A11DB11D80935801909337
:100A70005901A0935A01B0935B012CC082309105BB
:100A8000A105B10539F542B750E060E070E0409350
:100A90005401509355016093560170935701409152
:100AA0006401509165016091660170916701409306
:100AB00068015093690160936A0170936B0101961C
:100AC000A11DB11D8093580190935901A0935A0123
:100AD000B0935B01FF91EF91BF91AF919F918F9187
:100AE0007F916F915F914F913F912F910F900FBE2A
:100AF0000F901F901895843008F07CC0683008F083
:100B000079C0423008F076C0813019F130F082307F
:100B1000E1F1833009F454C00895442371F0413069
:100B200009F068C02AB381E090E002C0880F991FE5
:100B30006A95E2F7822B8ABB08952AB381E090E0A0
:100B400002C0880F991F6A95E2F7809582238ABBBD
:100B50000895442371F0413009F04CC027B381E07F
:100B600090E002C0880F991F6A95E2F7822B87BB3D
:100B7000089527B381E090E002C0880F991F6A951D
:100B8000E2F78095822387BB0895442369F04130C2
:100B900089F524B381E090E002C0880F991F6A951F
:100BA000E2F7822B84BB089524B381E090E002C079
:100BB000880F991F6A95E2F78095822384BB089578
:100BC000442369F04130B1F421B381E090E002C0E8
:100BD000880F991F6A95E2F7822B81BB089521B394
:100BE00081E090E002C0880F991F6A95E2F7809536
:100BF000822381BB0895843008F07CC0683008F0FF
:100C000079C0423008F076C0813019F130F082307E
:100C1000E1F1833009F454C00895442371F0413068
:100C200009F068C02BB381E090E002C0880F991FE3
:100C30006A95E2F7822B8BBB08952BB381E090E09D
:100C400002C0880F991F6A95E2F7809582238BBBBB
:100C50000895442371F0413009F04CC028B381E07D
:100C600090E002C0880F991F6A95E2F7822B88BB3B
:100C7000089528B381E090E002C0880F991F6A951B
:100C8000E2F78095822388BB0895442369F04130C0
:100C900089F525B381E090E002C0880F991F6A951D
:100CA000E2F7822B85BB089525B381E090E002C076
:100CB000880F991F6A95E2F78095822385BB089576
:100CC000442369F04130B1F422B381E090E002C0E6
:100CD000880F991F6A95E2F7822B82BB089522B391
:100CE00081E090E002C0880F991F6A95E2F7809535
:100CF000822382BB08958430C0F56830B0F5411579
:100D0000510599F1813089F028F08230C9F08330A3
:100D100011F1089589B390E002C0959587956A9581
:100D2000E2F78170FA018083089586B390E002C0F3
:100D3000959587956A95E2F78170FA018083089509
:100D400083B390E002C0959587956A95E2F781702C
:100D5000FA018083089580B390E002C0959587954D
:100D60006A95E2F78170FA0180830895813061F11C
:100D700020F0823009F44FC00895613069F028F006
:100D8000623089F06330B1F01BC085B7816085BFE8
:100D900085B7826085BF14C085B78E7F85BF85B754
:100DA000826085BF0DC085B78E7F85BF85B78D7F7B
:100DB00085BF06C085B7816085BF85B78D7F85BF3C
:100DC0008BB780648BBF0895613069F028F0623082
:100DD000C1F0633079F01BC085B7886085BF85B7E7
:100DE000846085BF14C085B7886085BF85B78B7F59
:100DF00085BF0DC085B7846085BF85B7877F85BFF8
:100E000006C085B7877F85BF85B78B7F85BF8BB7CA
:100E100080688BBF0895662331F0613039F484B760
:100E20008F7B84BF03C084B7806484BF8BB780622C
:100E30008BBF08958FB780688FBF08958FB58E7F61
:100E40008FBD8FB582608FBD8EB588608EBD8EB52B
:100E500080618EBD8FB58F7B8FBD8FB580688FBD54
:100E60000895CF92DF92EF92FF92CF93DF93EC0140
:100E70006A017B0120E030E048EC52E4C701B60192
:100E80000E94D208181694F19E0140E050E060E9FB
:100E900070ED83E090E00E94970A2150310937BD40
:100EA00026BD66B577B56F5F7F4F80E090E00E940A
:100EB0007809A70196010E942A0A20E030E048EC58
:100EC00052E40E94D70820E030E040E85FE30E944F
:100ED00065080E9449097BBD6ABD8EB581608EBDE3
:100EE0008EB582608EBD8EB58B7F8EBDDF91CF912A
:100EF000FF90EF90DF90CF9008956F927F928F9246
:100F00009F92AF92BF92CF92DF92EF92FF920F9398
:100F10001F93CF93DF93CDB7DEB73C01892B11F13F
:100F2000322F212F102F0027D901C801840F951FC0
:100F3000A61FB71F9C01AD01A4E6B0E00E94B90A4C
:100F40003A2D292D182D0027A90198012C0D3D1DA2
:100F50004E1D5F1D0E94970AD3012D933D934D9323
:100F60005C931397DF91CF911F910F91FF90EF90BA
:100F7000DF90CF90BF90AF909F908F907F906F90B9
:100F800008950F931F93CF93DF93EC01892BE1F02A
:100F9000322F212F102F0027400F511F621F731F68
:100FA0009A01AB01220F331F441F551F220F331F1D
:100FB000441F551F60E472E48FE090E00E94970A9E
:100FC000288339834A835B83DF91CF911F910F91EF
:100FD00008950F931F93CF93DF938B019C01EA0138
:100FE000209761F068EE73E080E090E0A90198013D
:100FF0000E94970A288339834A835B83DF91CF91CC
:101000001F910F9108958F929F92AF92BF92CF92AE
:10101000DF92EF92FF920F931F93CF93DF9301150F
:101020001105F9F0E80189019A016B017C01C90100
:10103000B8010E94780920E030E048EC52E40E94B8
:10104000D7084B015C01C701B6010E947809A501D0
:1010500094010E942A0A0E944909688379838A833D
:101060009B83DF91CF911F910F91FF90EF90DF90C5
:10107000CF90BF90AF909F908F9008950F931F9344
:101080000115110559F0DC01CB01821B930BA40B58
:10109000B50BF80180839183A283B3831F910F91D5
:1010A000089583B78F7B83BF83B7877F83BF89B75B
:1010B000816089BF089583B7816083BF83B78260F1
:1010C00083BF83B78B7F83BF08955058BB27AA2760
:1010D0000E947D080C94F0090E94E20938F00E94F9
:1010E000E90920F039F49F3F19F426F40C94DF0944
:1010F0000EF4E095E7FB0C94D909E92F0E94010A50
:1011000058F3BA17620773078407950720F079F43C
:10111000A6F50C94230A0EF4E0950B2EBA2FA02D01
:101120000B01B90190010C01CA01A0011124FF2794
:10113000591B99F0593F50F4503E68F11A16F0408F
:10114000A22F232F342F4427585FF3CF469537958E
:101150002795A795F0405395C9F77EF41F16BA0B53
:10116000620B730B840BBAF09150A1F0FF0FBB1F01
:10117000661F771F881FC2F70EC0BA0F621F731F4A
:10118000841F48F4879577956795B795F7959E3FA7
:1011900008F0B0CF9395880F08F09927EE0F979538
:1011A000879508950E94B50908F481E008950E948A
:1011B000EB080C94F0090E94E90958F00E94E2093A
:1011C00040F029F45F3F29F00C94D90951110C9497
:1011D000240A0C94DF090E94010A68F39923B1F3F1
:1011E000552391F3951B550BBB27AA27621773074D
:1011F000840738F09F5F5F4F220F331F441FAA1FE1
:10120000A9F335D00E2E3AF0E0E832D0915050409C
:10121000E695001CCAF72BD0FE2F29D0660F771F4A
:10122000881FBB1F261737074807AB07B0E809F030
:10123000BB0B802DBF01FF2793585F4F3AF09E3FB5
:10124000510578F00C94D9090C94240A5F3FE4F31B
:10125000983ED4F3869577956795B795F7959F5FF8
:10126000C9F7880F911D9695879597F90895E1E044
:10127000660F771F881FBB1F621773078407BA07A3
:1012800020F0621B730B840BBA0BEE1F88F7E095FE
:1012900008950E94090A88F09F5798F0B92F99275E
:1012A000B751B0F0E1F0660F771F881F991F1AF051
:1012B000BA95C9F714C0B13091F00E94230AB1E089
:1012C00008950C94230A672F782F8827B85F39F088
:1012D000B93FCCF3869577956795B395D9F73EF4EA
:1012E00090958095709561957F4F8F4F9F4F089592
:1012F000E89409C097FB3EF49095809570956195B0
:101300007F4F8F4F9F4F9923A9F0F92F96E9BB2765
:101310009395F695879577956795B795F111F8CFE1
:10132000FAF4BB0F11F460FF1BC06F5F7F4F8F4F4C
:101330009F4F16C0882311F096E911C0772321F042
:101340009EE8872F762F05C0662371F096E8862FDA
:1013500070E060E02AF09A95660F771F881FDAF731
:10136000880F9695879597F90895990F0008550F5E
:10137000AA0BE0E8FEEF16161706E807F907C0F01B
:1013800012161306E407F50798F0621B730B840B23
:10139000950B39F40A2661F0232B242B252B21F4FD
:1013A00008950A2609F4A140A6958FEF811D811D9D
:1013B000089597F99F6780E870E060E008959FEFD7
:1013C00080EC089500240A941616170618060906DC
:1013D000089500240A9412161306140605060895AB
:1013E000092E0394000C11F4882352F0BB0F40F433
:1013F000BF2B11F460FF04C06F5F7F4F8F4F9F4F73
:10140000089557FD9058440F551F59F05F3F71F0F4
:101410004795880F97FB991F61F09F3F79F087955B
:101420000895121613061406551FF2CF4695F1DFE4
:1014300008C0161617061806991FF1CF8695710574
:10144000610508940895E894BB2766277727CB01A8
:1014500097F908950E943D0A0C94F0090E94E20950
:1014600038F00E94E90920F0952311F00C94D90975
:101470000C94DF0911240C94240A0E94010A70F3D1
:10148000959FC1F3950F50E0551F629FF001729F29
:10149000BB27F00DB11D639FAA27F00DB11DAA1F38
:1014A000649F6627B00DA11D661F829F2227B00D85
:1014B000A11D621F739FB00DA11D621F839FA00D10
:1014C000611D221F749F3327A00D611D231F849F60
:1014D000600D211D822F762F6A2F11249F575040B7
:1014E0009AF0F1F088234AF0EE0FFF1FBB1F661F32
:1014F000771F881F91505040A9F79E3F510580F0FB
:101500000C94D9090C94240A5F3FE4F3983ED4F379
:10151000869577956795B795F795E7959F5FC1F79E
:10152000FE2B880F911D9695879597F90895A1E256
:101530001A2EAA1BBB1BFD010DC0AA1FBB1FEE1F4D
:10154000FF1FA217B307E407F50720F0A21BB30B98
:10155000E40BF50B661F771F881F991F1A9469F714
:1015600060957095809590959B01AC01BD01CF0170
:1015700008950E94C40AA59F900DB49F900DA49F4A
:10158000800D911D11240895A29FB001B39FC00149
:10159000A39F700D811D1124911DB29F700D811D9F
:1015A0001124911D0895AEE0B0E0E9EDFAE00C944D
:1015B000940D0D891E8986E08C831A8309838FEF31
:1015C0009FE79E838D83AE01475E5F4F6F89788D65
:1015D000CE0101960E94F50AEF81F885E00FF11F18
:1015E00010822E96E4E00C94B00DABE0B0E0EBEF8F
:1015F000FAE00C94860D6C017B018A01FC011782D4
:101600001682838181FFCCC1CE0101963C01F60197
:101610009381F70193FD859193FF81917F01882349
:1016200009F4BAC1853239F493FD859193FF819114
:101630007F01853229F4B60190E00E94EC0CE7CFDF
:10164000912C212C312CFFE1F315D8F08B3279F05D
:1016500038F4803279F08332A1F4232D20611DC04B
:101660008D3261F0803369F4232D216016C0832D03
:101670008260382EE32DE4603E2E2AC0F32DF86000
:101680001DC037FC2DC020ED280F2A3040F08E32CF
:10169000B9F436FC81C1232D2064322E19C036FEE8
:1016A00006C08AE0989E200D1124922E11C0EAE017
:1016B0002E9E200D1124222EF32DF0623F2E08C005
:1016C0008C3621F4832D8068382E02C0883641F490
:1016D000F70193FD859193FF81917F018111B3CF34
:1016E000982F9F7D9554933028F40C5F1F4F9FE3F4
:1016F00099830DC0833631F0833771F0833509F05B
:1017000059C021C0F801808189830E5F1F4F882452
:101710008394912C530113C02801F2E04F0E511C09
:10172000F801A080B18036FE03C0692D70E002C0D0
:101730006FEF7FEFC5010E94E10C4C018201F32D98
:10174000FF773F2E16C0280122E0420E511CF801FF
:10175000A080B18036FE03C0692D70E002C06FEF3B
:101760007FEFC5010E94D60C4C01F32DF0683F2E8F
:10177000820133FC1BC0822D90E088169906B0F4DC
:10178000B60180E290E00E94EC0C2A94F4CFF501BF
:1017900037FC859137FE81915F01B60190E00E9490
:1017A000EC0C21102A9421E0821A910881149104F2
:1017B00071F7E8C0843611F0893641F5F80137FE3B
:1017C00007C060817181828193810C5F1F4F08C0C7
:1017D00060817181072E000C880B990B0E5F1F4FE3
:1017E000F32DFF763F2E97FF09C090958095709559
:1017F00061957F4F8F4F9F4FF0683F2E2AE030E07A
:10180000A3010E94280D882E861845C0853731F423
:10181000232D2F7EB22E2AE030E025C0932D997F14
:10182000B92E8F36C1F018F4883579F0B5C08037FD
:1018300019F0883721F0B0C0E92FE061BE2EB4FE68
:101840000DC0FB2DF460BF2E09C034FE0AC0292F45
:101850002660B22E06C028E030E005C020E130E06E
:1018600002C020E132E0F801B7FE07C0608171815B
:10187000828193810C5F1F4F06C06081718180E07F
:1018800090E00E5F1F4FA3010E94280D882E86183E
:10189000FB2DFF773F2E36FE0DC0232D2E7FA22E6F
:1018A000891458F434FE0BC032FC09C0832D8E7E9F
:1018B000A82E05C0B82CA32C03C0B82C01C0B92C8D
:1018C000A4FE0FC0FE01E80DF11D8081803321F4DC
:1018D0009A2D997EA92E09C0A2FE06C0B394B39496
:1018E00004C08A2D867809F0B394A3FC11C0A0FE31
:1018F00006C0B21488F4280C922C9B180EC0B214A7
:1019000060F4B60180E290E00E94EC0CB394F7CF53
:10191000B21418F42B1802C0982C212CA4FE10C06D
:10192000B60180E390E00E94EC0CA2FE17C0A1FC7F
:1019300003C088E790E002C088E590E0B6010CC0E3
:101940008A2D867859F0A1FE02C08BE201C080E2A8
:10195000A7FC8DE2B60190E00E94EC0C891438F4EB
:10196000B60180E390E00E94EC0C9A94F7CF8A9441
:10197000F301E80DF11D8081B60190E00E94EC0CAE
:101980008110F5CF222009F442CEB60180E290E02A
:101990000E94EC0C2A94F6CFF6018681978102C052
:1019A0008FEF9FEF2B96E2E10C94A20DFC010590C6
:1019B000615070400110D8F7809590958E0F9F1F51
:1019C0000895FC016150704001900110D8F7809596
:1019D00090958E0F9F1F08950F931F93CF93DF93C2
:1019E000FB01238121FD03C08FEF9FEF2CC022FF5D
:1019F00016C046815781248135814217530744F42C
:101A0000A081B1819D012F5F3F4F318320838C9353
:101A1000268137812F5F3F4F3783268314C08B0188
:101A2000EC01FB010084F185E02D0995892BE1F69D
:101A3000D80116968D919C911797019617969C93B5
:101A40008E931697CE01DF91CF911F910F9108953C
:101A5000FA01AA27283051F1203181F1E8946F93DF
:101A60006E7F6E5F7F4F8F4F9F4FAF4FB1E03ED085
:101A7000B4E03CD0670F781F891F9A1FA11D680F23
:101A8000791F8A1F911DA11D6A0F711D811D911D56
:101A9000A11D20D009F468943F912AE0269F1124CB
:101AA0003019305D3193DEF6CF010895462F47702F
:101AB000405D4193B3E00FD0C9F7F6CF462F4F708A
:101AC000405D4A3318F0495D31FD4052419302D0E8
:101AD000A9F7EACFB4E0A69597958795779567958E
:101AE000BA95C9F700976105710508959B01AC018E
:101AF0000A2E06945795479537952795BA95C9F7B5
:101B0000620F731F841F951FA01D08952F923F928F
:101B10004F925F926F927F928F929F92AF92BF92FD
:101B2000CF92DF92EF92FF920F931F93CF93DF93A9
:101B3000CDB7DEB7CA1BDB0B0FB6F894DEBF0FBE06
:101B4000CDBF09942A88398848885F846E847D8453
:101B50008C849B84AA84B984C884DF80EE80FD8055
:101B60000C811B81AA81B981CE0FD11D0FB6F894CB
:0E1B7000DEBF0FBECDBFED010895F894FFCF8C
:101B7E00256C7500487A2000445554595F437963AB
:101B8E006C653D006D732000447574793D200054E2
:101B9E006F6E3D00546F66663D005F7C2D7C5F7CF2
:101BAE002D7C5F7C2D7C5F7C2D7C5F7C2D7C5F0093
:101BBE002D2D7C5F5F7C2D2D7C5F5F005F5F7C2D0C
:101BCE002D7C5F5F7C2D2D7C5F5F7C002D2D2D7C11
:101BDE005F5F5F005F5F5F7C2D2D2D7C5F5F5F7CA5
:101BEE00002D2D2D2D7C5F5F5F5F005F5F5F5F7C43
:101BFE002D2D2D2D7C5F5F5F5F7C005F5F5F5F5FD4
:101C0E007C2D2D2D2D2D7C5F5F5F5F5F005F7C2D0A
:101C1E007C5F7C2D7C5F7C2D7C5F7C005F5F5F5FDB
:101C2E005F7C2D2D2D2D2D7C5F5F5F5F5F5F0057DD
:101C3E00656C636F6D6520746F20596F7573656683
:101C4E0027732050726F6A6563740050574D5F7230
:101C5E00656164657220416D6974203230323420C2
:041C6E003A2900000F
:00000001FF
